{
  "_format": "hh-sol-artifact-1",
  "contractName": "Masket",
  "sourceName": "contracts/Masket.sol",
  "abi": [
    {
      "inputs": [],
      "stateMutability": "nonpayable",
      "type": "constructor"
    },
    {
      "anonymous": false,
      "inputs": [
        {
          "indexed": false,
          "internalType": "address",
          "name": "buyerAddress",
          "type": "address"
        },
        {
          "indexed": false,
          "internalType": "string",
          "name": "metadata",
          "type": "string"
        }
      ],
      "name": "BuyerUpdated",
      "type": "event"
    },
    {
      "anonymous": false,
      "inputs": [
        {
          "indexed": false,
          "internalType": "uint256",
          "name": "productId",
          "type": "uint256"
        },
        {
          "indexed": false,
          "internalType": "string",
          "name": "metadata",
          "type": "string"
        },
        {
          "indexed": false,
          "internalType": "uint256",
          "name": "price",
          "type": "uint256"
        },
        {
          "indexed": false,
          "internalType": "address",
          "name": "sellerAddres",
          "type": "address"
        }
      ],
      "name": "ProductCreated",
      "type": "event"
    },
    {
      "anonymous": false,
      "inputs": [
        {
          "indexed": false,
          "internalType": "uint256",
          "name": "productId",
          "type": "uint256"
        },
        {
          "indexed": false,
          "internalType": "address",
          "name": "buyer",
          "type": "address"
        }
      ],
      "name": "ProductPurchased",
      "type": "event"
    },
    {
      "anonymous": false,
      "inputs": [
        {
          "indexed": true,
          "internalType": "bytes32",
          "name": "role",
          "type": "bytes32"
        },
        {
          "indexed": true,
          "internalType": "bytes32",
          "name": "previousAdminRole",
          "type": "bytes32"
        },
        {
          "indexed": true,
          "internalType": "bytes32",
          "name": "newAdminRole",
          "type": "bytes32"
        }
      ],
      "name": "RoleAdminChanged",
      "type": "event"
    },
    {
      "anonymous": false,
      "inputs": [
        {
          "indexed": true,
          "internalType": "bytes32",
          "name": "role",
          "type": "bytes32"
        },
        {
          "indexed": true,
          "internalType": "address",
          "name": "account",
          "type": "address"
        },
        {
          "indexed": true,
          "internalType": "address",
          "name": "sender",
          "type": "address"
        }
      ],
      "name": "RoleGranted",
      "type": "event"
    },
    {
      "anonymous": false,
      "inputs": [
        {
          "indexed": true,
          "internalType": "bytes32",
          "name": "role",
          "type": "bytes32"
        },
        {
          "indexed": true,
          "internalType": "address",
          "name": "account",
          "type": "address"
        },
        {
          "indexed": true,
          "internalType": "address",
          "name": "sender",
          "type": "address"
        }
      ],
      "name": "RoleRevoked",
      "type": "event"
    },
    {
      "inputs": [],
      "name": "ADMIN_ROLE",
      "outputs": [
        {
          "internalType": "bytes32",
          "name": "",
          "type": "bytes32"
        }
      ],
      "stateMutability": "view",
      "type": "function"
    },
    {
      "inputs": [],
      "name": "DEFAULT_ADMIN_ROLE",
      "outputs": [
        {
          "internalType": "bytes32",
          "name": "",
          "type": "bytes32"
        }
      ],
      "stateMutability": "view",
      "type": "function"
    },
    {
      "inputs": [
        {
          "internalType": "string",
          "name": "_productMetadata",
          "type": "string"
        },
        {
          "internalType": "uint256",
          "name": "_price",
          "type": "uint256"
        },
        {
          "internalType": "address payable",
          "name": "_seller",
          "type": "address"
        }
      ],
      "name": "createProduct",
      "outputs": [],
      "stateMutability": "nonpayable",
      "type": "function"
    },
    {
      "inputs": [
        {
          "internalType": "bytes32",
          "name": "role",
          "type": "bytes32"
        }
      ],
      "name": "getRoleAdmin",
      "outputs": [
        {
          "internalType": "bytes32",
          "name": "",
          "type": "bytes32"
        }
      ],
      "stateMutability": "view",
      "type": "function"
    },
    {
      "inputs": [
        {
          "internalType": "bytes32",
          "name": "role",
          "type": "bytes32"
        },
        {
          "internalType": "address",
          "name": "account",
          "type": "address"
        }
      ],
      "name": "grantRole",
      "outputs": [],
      "stateMutability": "nonpayable",
      "type": "function"
    },
    {
      "inputs": [
        {
          "internalType": "bytes32",
          "name": "role",
          "type": "bytes32"
        },
        {
          "internalType": "address",
          "name": "account",
          "type": "address"
        }
      ],
      "name": "hasRole",
      "outputs": [
        {
          "internalType": "bool",
          "name": "",
          "type": "bool"
        }
      ],
      "stateMutability": "view",
      "type": "function"
    },
    {
      "inputs": [
        {
          "internalType": "uint256",
          "name": "_productId",
          "type": "uint256"
        }
      ],
      "name": "purchaseProduct",
      "outputs": [],
      "stateMutability": "payable",
      "type": "function"
    },
    {
      "inputs": [
        {
          "internalType": "bytes32",
          "name": "role",
          "type": "bytes32"
        },
        {
          "internalType": "address",
          "name": "account",
          "type": "address"
        }
      ],
      "name": "renounceRole",
      "outputs": [],
      "stateMutability": "nonpayable",
      "type": "function"
    },
    {
      "inputs": [
        {
          "internalType": "bytes32",
          "name": "role",
          "type": "bytes32"
        },
        {
          "internalType": "address",
          "name": "account",
          "type": "address"
        }
      ],
      "name": "revokeRole",
      "outputs": [],
      "stateMutability": "nonpayable",
      "type": "function"
    },
    {
      "inputs": [
        {
          "internalType": "string",
          "name": "_buyerMetadata",
          "type": "string"
        }
      ],
      "name": "setBuyerMetadata",
      "outputs": [],
      "stateMutability": "nonpayable",
      "type": "function"
    },
    {
      "inputs": [
        {
          "internalType": "bytes4",
          "name": "interfaceId",
          "type": "bytes4"
        }
      ],
      "name": "supportsInterface",
      "outputs": [
        {
          "internalType": "bool",
          "name": "",
          "type": "bool"
        }
      ],
      "stateMutability": "view",
      "type": "function"
    }
  ],
  "bytecode": "0x60806040523480156200001157600080fd5b50620000276000801b336200002d60201b60201c565b620001a6565b6200003f82826200004360201b60201c565b5050565b6200005582826200013460201b60201c565b6200013057600160008084815260200190815260200160002060000160008373ffffffffffffffffffffffffffffffffffffffff1673ffffffffffffffffffffffffffffffffffffffff16815260200190815260200160002060006101000a81548160ff021916908315150217905550620000d56200019e60201b60201c565b73ffffffffffffffffffffffffffffffffffffffff168173ffffffffffffffffffffffffffffffffffffffff16837f2f8788117e7eff1d82e926ec794901d17c78024a50270940304540a733656f0d60405160405180910390a45b5050565b600080600084815260200190815260200160002060000160008373ffffffffffffffffffffffffffffffffffffffff1673ffffffffffffffffffffffffffffffffffffffff16815260200190815260200160002060009054906101000a900460ff16905092915050565b600033905090565b611b3180620001b66000396000f3fe60806040526004361061009c5760003560e01c806375b238fc1161006457806375b238fc146101895780638dc51887146101b457806391d14854146101dd578063a217fddf1461021a578063d547741f14610245578063d849f8dc1461026e5761009c565b806301ffc9a7146100a1578063248a9ca3146100de5780632f2ff15d1461011b57806336568abe1461014457806338e76a031461016d575b600080fd5b3480156100ad57600080fd5b506100c860048036038101906100c39190611168565b610297565b6040516100d59190611476565b60405180910390f35b3480156100ea57600080fd5b5061010560048036038101906101009190611103565b610311565b6040516101129190611491565b60405180910390f35b34801561012757600080fd5b50610142600480360381019061013d919061112c565b610330565b005b34801561015057600080fd5b5061016b6004803603810190610166919061112c565b610359565b005b61018760048036038101906101829190611239565b6103dc565b005b34801561019557600080fd5b5061019e6106d4565b6040516101ab9190611491565b60405180910390f35b3480156101c057600080fd5b506101db60048036038101906101d691906111d2565b6106f8565b005b3480156101e957600080fd5b5061020460048036038101906101ff919061112c565b610877565b6040516102119190611476565b60405180910390f35b34801561022657600080fd5b5061022f6108e1565b60405161023c9190611491565b60405180910390f35b34801561025157600080fd5b5061026c6004803603810190610267919061112c565b6108e8565b005b34801561027a57600080fd5b5061029560048036038101906102909190611191565b610911565b005b60007f7965db0b000000000000000000000000000000000000000000000000000000007bffffffffffffffffffffffffffffffffffffffffffffffffffffffff1916827bffffffffffffffffffffffffffffffffffffffffffffffffffffffff1916148061030a5750610309826109a1565b5b9050919050565b6000806000838152602001908152602001600020600101549050919050565b61033982610311565b61034a81610345610a0b565b610a13565b6103548383610ab0565b505050565b610361610a0b565b73ffffffffffffffffffffffffffffffffffffffff168173ffffffffffffffffffffffffffffffffffffffff16146103ce576040517f08c379a00000000000000000000000000000000000000000000000000000000081526004016103c59061154e565b60405180910390fd5b6103d88282610b90565b5050565b6000600260003373ffffffffffffffffffffffffffffffffffffffff1673ffffffffffffffffffffffffffffffffffffffff168152602001908152602001600020805461042890611842565b80601f016020809104026020016040519081016040528092919081815260200182805461045490611842565b80156104a15780601f10610476576101008083540402835291602001916104a1565b820191906000526020600020905b81548152906001019060200180831161048457829003601f168201915b505050505090506000600160008481526020019081526020016000206040518060600160405290816000820180546104d890611842565b80601f016020809104026020016040519081016040528092919081815260200182805461050490611842565b80156105515780601f1061052657610100808354040283529160200191610551565b820191906000526020600020905b81548152906001019060200180831161053457829003601f168201915b50505050508152602001600182015481526020016002820160009054906101000a900473ffffffffffffffffffffffffffffffffffffffff1673ffffffffffffffffffffffffffffffffffffffff1673ffffffffffffffffffffffffffffffffffffffff16815250509050600082511415610601576040517f08c379a00000000000000000000000000000000000000000000000000000000081526004016105f89061152e565b60405180910390fd5b34816020015114610647576040517f08c379a000000000000000000000000000000000000000000000000000000000815260040161063e9061150e565b60405180910390fd5b806040015173ffffffffffffffffffffffffffffffffffffffff166108fc82602001519081150290604051600060405180830381858888f19350505050158015610695573d6000803e3d6000fd5b507f9ad4ecfaf27ea0cbeebee0ed92fe15c8a84975f1e3d45ccfc526d7751dcf98ff83336040516106c792919061156e565b60405180910390a1505050565b7fa49807205ce4d355092ef5a8a18f56e8913cf4a201fbe287825b095693c2177581565b6107227fa49807205ce4d355092ef5a8a18f56e8913cf4a201fbe287825b095693c2177533610877565b610761576040517f08c379a0000000000000000000000000000000000000000000000000000000008152600401610758906114ee565b60405180910390fd5b61076b6003610c71565b60006107776003610c87565b9050600060405180606001604052808681526020018581526020018473ffffffffffffffffffffffffffffffffffffffff168152509050806001600084815260200190815260200160002060008201518160000190805190602001906107de929190610f8f565b506020820151816001015560408201518160020160006101000a81548173ffffffffffffffffffffffffffffffffffffffff021916908373ffffffffffffffffffffffffffffffffffffffff1602179055509050507f2e87df3c8f53fb06266ed52023929f5fab9f24130224ef6538b665d9cac82530828686866040516108689493929190611597565b60405180910390a15050505050565b600080600084815260200190815260200160002060000160008373ffffffffffffffffffffffffffffffffffffffff1673ffffffffffffffffffffffffffffffffffffffff16815260200190815260200160002060009054906101000a900460ff16905092915050565b6000801b81565b6108f182610311565b610902816108fd610a0b565b610a13565b61090c8383610b90565b505050565b80600260003373ffffffffffffffffffffffffffffffffffffffff1673ffffffffffffffffffffffffffffffffffffffff1681526020019081526020016000209080519060200190610964929190610f8f565b507f8e567a38b45f592aef32e72078853dca91b236f09c0511fff5cf5274fdd1cd813382604051610996929190611446565b60405180910390a150565b60007f01ffc9a7000000000000000000000000000000000000000000000000000000007bffffffffffffffffffffffffffffffffffffffffffffffffffffffff1916827bffffffffffffffffffffffffffffffffffffffffffffffffffffffff1916149050919050565b600033905090565b610a1d8282610877565b610aac57610a428173ffffffffffffffffffffffffffffffffffffffff166014610c95565b610a508360001c6020610c95565b604051602001610a6192919061140c565b6040516020818303038152906040526040517f08c379a0000000000000000000000000000000000000000000000000000000008152600401610aa391906114ac565b60405180910390fd5b5050565b610aba8282610877565b610b8c57600160008084815260200190815260200160002060000160008373ffffffffffffffffffffffffffffffffffffffff1673ffffffffffffffffffffffffffffffffffffffff16815260200190815260200160002060006101000a81548160ff021916908315150217905550610b31610a0b565b73ffffffffffffffffffffffffffffffffffffffff168173ffffffffffffffffffffffffffffffffffffffff16837f2f8788117e7eff1d82e926ec794901d17c78024a50270940304540a733656f0d60405160405180910390a45b5050565b610b9a8282610877565b15610c6d57600080600084815260200190815260200160002060000160008373ffffffffffffffffffffffffffffffffffffffff1673ffffffffffffffffffffffffffffffffffffffff16815260200190815260200160002060006101000a81548160ff021916908315150217905550610c12610a0b565b73ffffffffffffffffffffffffffffffffffffffff168173ffffffffffffffffffffffffffffffffffffffff16837ff6391f5c32d9c69d2a47ea670b442974b53935d1edc7fd64eb21e047a839171b60405160405180910390a45b5050565b6001816000016000828254019250508190555050565b600081600001549050919050565b606060006002836002610ca891906116b6565b610cb29190611660565b67ffffffffffffffff811115610cf1577f4e487b7100000000000000000000000000000000000000000000000000000000600052604160045260246000fd5b6040519080825280601f01601f191660200182016040528015610d235781602001600182028036833780820191505090505b5090507f300000000000000000000000000000000000000000000000000000000000000081600081518110610d81577f4e487b7100000000000000000000000000000000000000000000000000000000600052603260045260246000fd5b60200101907effffffffffffffffffffffffffffffffffffffffffffffffffffffffffffff1916908160001a9053507f780000000000000000000000000000000000000000000000000000000000000081600181518110610e0b577f4e487b7100000000000000000000000000000000000000000000000000000000600052603260045260246000fd5b60200101907effffffffffffffffffffffffffffffffffffffffffffffffffffffffffffff1916908160001a90535060006001846002610e4b91906116b6565b610e559190611660565b90505b6001811115610f41577f3031323334353637383961626364656600000000000000000000000000000000600f861660108110610ebd577f4e487b7100000000000000000000000000000000000000000000000000000000600052603260045260246000fd5b1a60f81b828281518110610efa577f4e487b7100000000000000000000000000000000000000000000000000000000600052603260045260246000fd5b60200101907effffffffffffffffffffffffffffffffffffffffffffffffffffffffffffff1916908160001a905350600485901c945080610f3a90611818565b9050610e58565b5060008414610f85576040517f08c379a0000000000000000000000000000000000000000000000000000000008152600401610f7c906114ce565b60405180910390fd5b8091505092915050565b828054610f9b90611842565b90600052602060002090601f016020900481019282610fbd5760008555611004565b82601f10610fd657805160ff1916838001178555611004565b82800160010185558215611004579182015b82811115611003578251825591602001919060010190610fe8565b5b5090506110119190611015565b5090565b5b8082111561102e576000816000905550600101611016565b5090565b600061104561104084611608565b6115e3565b90508281526020810184848401111561105d57600080fd5b6110688482856117d6565b509392505050565b60008135905061107f81611a88565b92915050565b60008135905061109481611a9f565b92915050565b6000813590506110a981611ab6565b92915050565b6000813590506110be81611acd565b92915050565b600082601f8301126110d557600080fd5b81356110e5848260208601611032565b91505092915050565b6000813590506110fd81611ae4565b92915050565b60006020828403121561111557600080fd5b60006111238482850161109a565b91505092915050565b6000806040838503121561113f57600080fd5b600061114d8582860161109a565b925050602061115e85828601611070565b9150509250929050565b60006020828403121561117a57600080fd5b6000611188848285016110af565b91505092915050565b6000602082840312156111a357600080fd5b600082013567ffffffffffffffff8111156111bd57600080fd5b6111c9848285016110c4565b91505092915050565b6000806000606084860312156111e757600080fd5b600084013567ffffffffffffffff81111561120157600080fd5b61120d868287016110c4565b935050602061121e868287016110ee565b925050604061122f86828701611085565b9150509250925092565b60006020828403121561124b57600080fd5b6000611259848285016110ee565b91505092915050565b61126b816117a0565b82525050565b61127a81611710565b82525050565b61128981611734565b82525050565b61129881611740565b82525050565b60006112a982611639565b6112b38185611644565b93506112c38185602086016117e5565b6112cc81611932565b840191505092915050565b60006112e282611639565b6112ec8185611655565b93506112fc8185602086016117e5565b80840191505092915050565b6000611315602083611644565b915061132082611943565b602082019050919050565b6000611338601583611644565b91506113438261196c565b602082019050919050565b600061135b601183611644565b915061136682611995565b602082019050919050565b600061137e601583611644565b9150611389826119be565b602082019050919050565b60006113a1601783611655565b91506113ac826119e7565b601782019050919050565b60006113c4601183611655565b91506113cf82611a10565b601182019050919050565b60006113e7602f83611644565b91506113f282611a39565b604082019050919050565b61140681611796565b82525050565b600061141782611394565b915061142382856112d7565b915061142e826113b7565b915061143a82846112d7565b91508190509392505050565b600060408201905061145b6000830185611271565b818103602083015261146d818461129e565b90509392505050565b600060208201905061148b6000830184611280565b92915050565b60006020820190506114a6600083018461128f565b92915050565b600060208201905081810360008301526114c6818461129e565b905092915050565b600060208201905081810360008301526114e781611308565b9050919050565b600060208201905081810360008301526115078161132b565b9050919050565b600060208201905081810360008301526115278161134e565b9050919050565b6000602082019050818103600083015261154781611371565b9050919050565b60006020820190508181036000830152611567816113da565b9050919050565b600060408201905061158360008301856113fd565b6115906020830184611271565b9392505050565b60006080820190506115ac60008301876113fd565b81810360208301526115be818661129e565b90506115cd60408301856113fd565b6115da6060830184611262565b95945050505050565b60006115ed6115fe565b90506115f98282611874565b919050565b6000604051905090565b600067ffffffffffffffff82111561162357611622611903565b5b61162c82611932565b9050602081019050919050565b600081519050919050565b600082825260208201905092915050565b600081905092915050565b600061166b82611796565b915061167683611796565b9250827fffffffffffffffffffffffffffffffffffffffffffffffffffffffffffffffff038211156116ab576116aa6118a5565b5b828201905092915050565b60006116c182611796565b91506116cc83611796565b9250817fffffffffffffffffffffffffffffffffffffffffffffffffffffffffffffffff0483118215151615611705576117046118a5565b5b828202905092915050565b600061171b82611776565b9050919050565b600061172d82611776565b9050919050565b60008115159050919050565b6000819050919050565b60007fffffffff0000000000000000000000000000000000000000000000000000000082169050919050565b600073ffffffffffffffffffffffffffffffffffffffff82169050919050565b6000819050919050565b60006117ab826117b2565b9050919050565b60006117bd826117c4565b9050919050565b60006117cf82611776565b9050919050565b82818337600083830152505050565b60005b838110156118035780820151818401526020810190506117e8565b83811115611812576000848401525b50505050565b600061182382611796565b91506000821415611837576118366118a5565b5b600182039050919050565b6000600282049050600182168061185a57607f821691505b6020821081141561186e5761186d6118d4565b5b50919050565b61187d82611932565b810181811067ffffffffffffffff8211171561189c5761189b611903565b5b80604052505050565b7f4e487b7100000000000000000000000000000000000000000000000000000000600052601160045260246000fd5b7f4e487b7100000000000000000000000000000000000000000000000000000000600052602260045260246000fd5b7f4e487b7100000000000000000000000000000000000000000000000000000000600052604160045260246000fd5b6000601f19601f8301169050919050565b7f537472696e67733a20686578206c656e67746820696e73756666696369656e74600082015250565b7f41646d696e206163636573732072657175697265640000000000000000000000600082015250565b7f57726f6e6720616d6f756e742073656e74000000000000000000000000000000600082015250565b7f427579657220686173206e6f206d657461646174610000000000000000000000600082015250565b7f416363657373436f6e74726f6c3a206163636f756e7420000000000000000000600082015250565b7f206973206d697373696e6720726f6c6520000000000000000000000000000000600082015250565b7f416363657373436f6e74726f6c3a2063616e206f6e6c792072656e6f756e636560008201527f20726f6c657320666f722073656c660000000000000000000000000000000000602082015250565b611a9181611710565b8114611a9c57600080fd5b50565b611aa881611722565b8114611ab357600080fd5b50565b611abf81611740565b8114611aca57600080fd5b50565b611ad68161174a565b8114611ae157600080fd5b50565b611aed81611796565b8114611af857600080fd5b5056fea2646970667358221220f19638f5a290559cd5db88f21b6a90b550902e7d938e699cc830ca7fce8d1b8f64736f6c63430008010033",
  "linkReferences": {},
  "deployedLinkReferences": {}
}